S00C0000436F64652E737265639D
S11300000C9456000C9468000C9468000C946800DE
S11300100C9468000C9468000C9468000C946800BC
S11300200C9468000C9468000C9468000C946800AC
S11300300C9468000C9468000C9468000C9468009C
S11300400C9468000C9468000C9468000C9468008C
S11300500C9468000C9468000C9468000C9468007C
S11300600C9468000C9468000C9468000C9468006C
S11300700C9468000C9468000C9468000C9468005C
S11300800C9468000C9468000C9468000C9468004C
S11300900C9468000C9468000C9468000C9468003C
S11300A00C9468000C9468000C94680011241FBE22
S11300B0CFEFDAE0DEBFCDBF21E0A0E0B1E001C0C8
S11300C01D92AE30B207E1F70E946A000C947501EC
S11300D00C94000085E38093C5008FE08093C600F4
S11300E081E08093D7002FEF24B92AB987E8809361
S11300F07A0083EF80937E008FE380937D0081EC10
S113010080937C00E0E8F0E08081826A8083E1E80B
S1130110F0E080818B61808380E792E09093870098
S11301208093860024B988E18093C90086E0809397
S1130130CA008CE090E09093CD008093CC00E8E777
S1130140F0E049EC50E02EEC30E0AAE7B0E00F2EEE
S1130150F7ECDF2EF02D6894CC24C3F868E870E047
S11301600F2EFFE22F2E312CF02D0F2EF7E4EF2E61
S1130170F12CF02D0EE010E0109206011092070110
S113018010920801109209011092010110920001CD
S113019080819181EA01C882C8ECD0E0B880B5FEC4
S11301A0FBCFE90188831092050110920401DC92CF
S11301B0DDE0DA95F1F70000808191812C01612C5A
S11301C0712C8090060190900701A0900801B090D6
S11301D0090184149504A604B70468F4808191810C
S11301E04C01A12CB12C8092060190920701A0929F
S11301F00801B092090180910401909105010196D2
S113020090930501809304018F3F910584F28091BE
S113021000019091010101969093010180930001E6
S1130220843691050CF4B4CF8090060190900701B8
S1130230A0900801B090090180920A0190920B01EC
S1130240A0920C01B0920D0189E1881681E0980614
S1130250A104B104F8F0EB01F982E882DFEF81EE4A
S113026094E0D15080409040E1F700C00000CFEF0F
S1130270D1EE84E0C150D0408040E1F700C00000DE
S11302809FEFC1EED4E09150C040D040E1F700C0F0
S1130290000027C085EB88169104A104B10468F01E
S11302A0EB0139822882DFEF81EE94E0D150804067
S11302B09040E1F700C0000014C0C1E88C1691041E
S11302C0A104B10470F084E190E0EB019983888388
S11302D09FEFC1EED4E09150C040D040E1F700C0A0
S11102E00000EB011983088347CFF894FFCF89
S9030000FC
